{
  "_format": "hh-sol-artifact-1",
  "contractName": "Loyalty",
  "sourceName": "contracts/Loyalty.sol",
  "abi": [
    {
      "inputs": [],
      "stateMutability": "nonpayable",
      "type": "constructor"
    },
    {
      "anonymous": false,
      "inputs": [
        {
          "indexed": false,
          "internalType": "address",
          "name": "from",
          "type": "address"
        },
        {
          "indexed": false,
          "internalType": "address",
          "name": "receiver",
          "type": "address"
        },
        {
          "indexed": false,
          "internalType": "uint256",
          "name": "amount",
          "type": "uint256"
        },
        {
          "indexed": false,
          "internalType": "string",
          "name": "message",
          "type": "string"
        },
        {
          "indexed": false,
          "internalType": "uint256",
          "name": "timestamp",
          "type": "uint256"
        },
        {
          "indexed": false,
          "internalType": "string",
          "name": "keyword",
          "type": "string"
        }
      ],
      "name": "Transfer",
      "type": "event"
    },
    {
      "inputs": [
        {
          "internalType": "address",
          "name": "user_address",
          "type": "address"
        }
      ],
      "name": "addUser",
      "outputs": [],
      "stateMutability": "payable",
      "type": "function"
    },
    {
      "inputs": [
        {
          "internalType": "string",
          "name": "source_company_name",
          "type": "string"
        },
        {
          "internalType": "string",
          "name": "destination_company_name",
          "type": "string"
        },
        {
          "internalType": "uint8",
          "name": "points_to_convert",
          "type": "uint8"
        }
      ],
      "name": "convert_reward_point",
      "outputs": [],
      "stateMutability": "payable",
      "type": "function"
    },
    {
      "inputs": [],
      "name": "get_AllTransaction_Count",
      "outputs": [
        {
          "internalType": "uint256",
          "name": "",
          "type": "uint256"
        }
      ],
      "stateMutability": "view",
      "type": "function"
    },
    {
      "inputs": [],
      "name": "get_address",
      "outputs": [
        {
          "internalType": "address",
          "name": "",
          "type": "address"
        }
      ],
      "stateMutability": "view",
      "type": "function"
    },
    {
      "inputs": [],
      "name": "get_allPoints",
      "outputs": [
        {
          "internalType": "uint8[3]",
          "name": "",
          "type": "uint8[3]"
        }
      ],
      "stateMutability": "view",
      "type": "function"
    },
    {
      "inputs": [],
      "name": "get_amazonPoint",
      "outputs": [
        {
          "internalType": "uint8",
          "name": "",
          "type": "uint8"
        }
      ],
      "stateMutability": "view",
      "type": "function"
    },
    {
      "inputs": [],
      "name": "get_flipkartPoint",
      "outputs": [
        {
          "internalType": "uint8",
          "name": "",
          "type": "uint8"
        }
      ],
      "stateMutability": "view",
      "type": "function"
    },
    {
      "inputs": [],
      "name": "get_myntraPoint",
      "outputs": [
        {
          "internalType": "uint8",
          "name": "",
          "type": "uint8"
        }
      ],
      "stateMutability": "view",
      "type": "function"
    },
    {
      "inputs": [],
      "name": "get_sender_address_initiated_Transactions",
      "outputs": [
        {
          "components": [
            {
              "internalType": "address",
              "name": "sender_address",
              "type": "address"
            },
            {
              "internalType": "address",
              "name": "receiver_address",
              "type": "address"
            },
            {
              "internalType": "string",
              "name": "source_company_name",
              "type": "string"
            },
            {
              "internalType": "string",
              "name": "destination_company_name",
              "type": "string"
            },
            {
              "internalType": "uint8",
              "name": "reward_points",
              "type": "uint8"
            }
          ],
          "internalType": "struct Loyalty.Transaction[]",
          "name": "",
          "type": "tuple[]"
        }
      ],
      "stateMutability": "view",
      "type": "function"
    },
    {
      "inputs": [
        {
          "internalType": "address",
          "name": "user_address",
          "type": "address"
        }
      ],
      "name": "get_user_index",
      "outputs": [
        {
          "internalType": "uint8",
          "name": "",
          "type": "uint8"
        }
      ],
      "stateMutability": "view",
      "type": "function"
    },
    {
      "inputs": [],
      "name": "isOwner",
      "outputs": [
        {
          "internalType": "bool",
          "name": "",
          "type": "bool"
        }
      ],
      "stateMutability": "view",
      "type": "function"
    },
    {
      "inputs": [],
      "name": "owner",
      "outputs": [
        {
          "internalType": "address",
          "name": "",
          "type": "address"
        }
      ],
      "stateMutability": "view",
      "type": "function"
    },
    {
      "inputs": [],
      "name": "retrieve_user_index",
      "outputs": [
        {
          "internalType": "uint8",
          "name": "",
          "type": "uint8"
        }
      ],
      "stateMutability": "view",
      "type": "function"
    },
    {
      "inputs": [
        {
          "internalType": "bytes",
          "name": "data",
          "type": "bytes"
        }
      ],
      "name": "toString",
      "outputs": [
        {
          "internalType": "string",
          "name": "",
          "type": "string"
        }
      ],
      "stateMutability": "pure",
      "type": "function"
    },
    {
      "inputs": [
        {
          "internalType": "address",
          "name": "receiver",
          "type": "address"
        },
        {
          "internalType": "string",
          "name": "company_name",
          "type": "string"
        },
        {
          "internalType": "uint8",
          "name": "points_to_convert",
          "type": "uint8"
        }
      ],
      "name": "transfer_reward_friend",
      "outputs": [],
      "stateMutability": "payable",
      "type": "function"
    }
  ],
  "bytecode": "0x608060405234801561001057600080fd5b50600080546001600160a01b03191633179055611ed2806100326000396000f3fe6080604052600436106100e85760003560e01c80638da5cb5b1161008a578063ca6f12d111610059578063ca6f12d114610248578063cff9f24d1461026a578063d18157121461027d578063fe37ebe51461029d57600080fd5b80638da5cb5b146101d55780638f32d59b146101f3578063a05ad4911461021e578063c36374f71461023357600080fd5b806325eb6a61116100c657806325eb6a6114610159578063421b2d8b1461016e57806371aad10d146101815780637c03c68a146101ae57600080fd5b80630131222f146100ed5780630e8e021d146101195780630f0d624d14610137575b600080fd5b3480156100f957600080fd5b50335b6040516001600160a01b0390911681526020015b60405180910390f35b34801561012557600080fd5b50600254604051908152602001610110565b34801561014357600080fd5b5061014c6102b2565b6040516101109190611a17565b61016c610167366004611b93565b610664565b005b61016c61017c366004611c1e565b610c2e565b34801561018d57600080fd5b506101a161019c366004611c39565b610d51565b6040516101109190611c8a565b3480156101ba57600080fd5b506101c3610f6a565b60405160ff9091168152602001610110565b3480156101e157600080fd5b506000546001600160a01b03166100fc565b3480156101ff57600080fd5b506000546001600160a01b031633146040519015158152602001610110565b34801561022a57600080fd5b506101c3610fcf565b34801561023f57600080fd5b506101c3611034565b34801561025457600080fd5b5061025d61109c565b6040516101109190611c9d565b61016c610278366004611cd1565b61115c565b34801561028957600080fd5b506101c3610298366004611c1e565b6117a2565b3480156102a957600080fd5b506101c361180c565b60606000806102c0336117a2565b9050600060018260ff16815481106102da576102da611d17565b60009182526020822001546001600160a01b031691505b60025460ff821610156103a4576000610328836040516020016103149190611d2d565b604051602081830303815290604052610d51565b9050600061037060028460ff168154811061034557610345611d17565b600091825260209182902060059091020154604051610314926001600160a01b039092169101611d2d565b905061037c8282611871565b1561038f5761038c600187611d60565b95505b5050808061039c90611d85565b9150506102f1565b5060008360ff1667ffffffffffffffff8111156103c3576103c3611acf565b60405190808252806020026020018201604052801561043b57816020015b6104286040518060a0016040528060006001600160a01b0316815260200160006001600160a01b031681526020016060815260200160608152602001600060ff1681525090565b8152602001906001900390816103e15790505b50905060005b60025460ff8216101561065b576000610464846040516020016103149190611d2d565b9050600061048160028460ff168154811061034557610345611d17565b905061048d8282611871565b156106465760028360ff16815481106104a8576104a8611d17565b60009182526020918290206040805160a081018252600590930290910180546001600160a01b03908116845260018201541693830193909352600283018054929392918401916104f790611da5565b80601f016020809104026020016040519081016040528092919081815260200182805461052390611da5565b80156105705780601f1061054557610100808354040283529160200191610570565b820191906000526020600020905b81548152906001019060200180831161055357829003601f168201915b5050505050815260200160038201805461058990611da5565b80601f01602080910402602001604051908101604052809291908181526020018280546105b590611da5565b80156106025780601f106105d757610100808354040283529160200191610602565b820191906000526020600020905b8154815290600101906020018083116105e557829003601f168201915b50505091835250506004919091015460ff166020909101528461062489611de0565b98508860ff168151811061063a5761063a611d17565b60200260200101819052505b5050808061065390611d85565b915050610441565b50949350505050565b600061066f336117a2565b60015490915060ff82161061069f5760405162461bcd60e51b815260040161069690611dfd565b60405180910390fd5b6106c7846040518060400160405280600681526020016530b6b0bd37b760d11b815250611871565b156107a3578160ff1660018260ff16815481106106e6576106e6611d17565b600091825260209091200154600160a01b900460ff16101561074a5760405162461bcd60e51b815260206004820152601a60248201527f496e73756666696369656e7420416d617a6f6e20506f696e74730000000000006044820152606401610696565b8160018260ff168154811061076157610761611d17565b60009182526020909120018054601490610786908490600160a01b900460ff16611e27565b92506101000a81548160ff021916908360ff16021790555061098c565b6107cd8460405180604001604052806008815260200167199b1a5c1ad85c9d60c21b815250611871565b1561088c578160ff1660018260ff16815481106107ec576107ec611d17565b600091825260209091200154600160a81b900460ff1610156108505760405162461bcd60e51b815260206004820152601c60248201527f496e73756666696369656e7420466c69706b61727420506f696e7473000000006044820152606401610696565b8160018260ff168154811061086757610867611d17565b60009182526020909120018054601590610786908490600160a81b900460ff16611e27565b6108b484604051806040016040528060068152602001656d796e74726160d01b815250611871565b1561098c578160ff1660018260ff16815481106108d3576108d3611d17565b600091825260209091200154600160b01b900460ff1610156109375760405162461bcd60e51b815260206004820152601a60248201527f496e73756666696369656e74204d796e74726120506f696e74730000000000006044820152606401610696565b8160018260ff168154811061094e5761094e611d17565b60009182526020909120018054601690610973908490600160b01b900460ff16611e27565b92506101000a81548160ff021916908360ff1602179055505b6109b4836040518060400160405280600681526020016530b6b0bd37b760d11b815250611871565b15610a12578160018260ff16815481106109d0576109d0611d17565b600091825260209091200180546014906109f5908490600160a01b900460ff16611d60565b92506101000a81548160ff021916908360ff160217905550610aff565b610a3c8360405180604001604052806008815260200167199b1a5c1ad85c9d60c21b815250611871565b15610a7d578160018260ff1681548110610a5857610a58611d17565b600091825260209091200180546015906109f5908490600160a81b900460ff16611d60565b610aa583604051806040016040528060068152602001656d796e74726160d01b815250611871565b15610aff578160018260ff1681548110610ac157610ac1611d17565b60009182526020909120018054601690610ae6908490600160b01b900460ff16611d60565b92506101000a81548160ff021916908360ff1602179055505b6040805160a0810182523380825260208083019182529282018781526060830187905260ff8616608084015260028054600181018255600091909152835160059091027f405787fa12a823e0f2b7631cc41b3ba8828b3321ca811111fa75cd3aa3bb5ace810180546001600160a01b039384166001600160a01b031991821617825594517f405787fa12a823e0f2b7631cc41b3ba8828b3321ca811111fa75cd3aa3bb5acf83018054919094169516949094179091559051805193948594610bed937f405787fa12a823e0f2b7631cc41b3ba8828b3321ca811111fa75cd3aa3bb5ad0019290910190611913565b5060608201518051610c09916003840191602090910190611913565b50608091909101516004909101805460ff191660ff9092169190911790555050505050565b6000546001600160a01b03163314610c995760405162461bcd60e51b815260206004820152602860248201527f46756e6374696f6e2061636365737369626c65206f6e6c7920627920746865206044820152676f776e657220212160c01b6064820152608401610696565b604080516080810182526001600160a01b0392831681526064602082018181529282018181526060830191825260018054808201825560009190915292517fb10e2d527612073b26eecdfd717e6a320cf44b4afac2b0732d9fcbe2b7fa0cf69093018054945191519251939095166001600160a81b031990941693909317600160a01b60ff948516021761ffff60a81b1916600160a81b9184169190910260ff60b01b191617600160b01b9290911691909102179055565b60408051808201909152601081526f181899199a1a9b1b9c1cb0b131b232b360811b6020820152815160609190600090610d8c906002611e4a565b610d97906002611e69565b67ffffffffffffffff811115610daf57610daf611acf565b6040519080825280601f01601f191660200182016040528015610dd9576020820181803683370190505b509050600360fc1b81600081518110610df457610df4611d17565b60200101906001600160f81b031916908160001a905350600f60fb1b81600181518110610e2357610e23611d17565b60200101906001600160f81b031916908160001a90535060005b8451811015610f6257826004868381518110610e5b57610e5b611d17565b016020015182516001600160f81b031990911690911c60f81c908110610e8357610e83611d17565b01602001516001600160f81b03191682610e9e836002611e4a565b610ea9906002611e69565b81518110610eb957610eb9611d17565b60200101906001600160f81b031916908160001a90535082858281518110610ee357610ee3611d17565b602091010151815160f89190911c600f16908110610f0357610f03611d17565b01602001516001600160f81b03191682610f1e836002611e4a565b610f29906003611e69565b81518110610f3957610f39611d17565b60200101906001600160f81b031916908160001a90535080610f5a81611e81565b915050610e3d565b509392505050565b600080610f76336117a2565b60015490915060ff821610610f9d5760405162461bcd60e51b815260040161069690611dfd565b60018160ff1681548110610fb357610fb3611d17565b600091825260209091200154600160a81b900460ff1692915050565b600080610fdb336117a2565b60015490915060ff8216106110025760405162461bcd60e51b815260040161069690611dfd565b60018160ff168154811061101857611018611d17565b600091825260209091200154600160b01b900460ff1692915050565b6000805b60015460ff8216101561109757336001600160a01b031660018260ff168154811061106557611065611d17565b6000918252602090912001546001600160a01b0316141561108557919050565b8061108f81611d85565b915050611038565b919050565b6110a4611997565b60006110af336117a2565b9050604051806060016040528060018360ff16815481106110d2576110d2611d17565b6000918252602091829020015460ff600160a01b9091048116835260018054939092019290851690811061110857611108611d17565b6000918252602091829020015460ff600160a81b9091048116835260018054939092019290851690811061113e5761113e611d17565b600091825260209091200154600160b01b900460ff16905292915050565b6000611167336117a2565b90506000611174856117a2565b60015490915060ff83161061119b5760405162461bcd60e51b815260040161069690611dfd565b60015460ff8216106111bf5760405162461bcd60e51b815260040161069690611dfd565b600061120060018460ff16815481106111da576111da611d17565b60009182526020918290200154604051610314926001600160a01b039092169101611d2d565b9050600061121d60018460ff16815481106111da576111da611d17565b90506112298282611871565b156112825760405162461bcd60e51b815260206004820152602360248201527f53656e64657220616e6420526563656965767220616464726573732069732073604482015262616d6560e81b6064820152608401610696565b6112aa866040518060400160405280600681526020016530b6b0bd37b760d11b815250611871565b156113da578460ff1660018560ff16815481106112c9576112c9611d17565b600091825260209091200154600160a01b900460ff16101561132d5760405162461bcd60e51b815260206004820152601a60248201527f496e73756666696369656e7420416d617a6f6e20506f696e74730000000000006044820152606401610696565b8460018560ff168154811061134457611344611d17565b60009182526020909120018054601490611369908490600160a01b900460ff16611e27565b92506101000a81548160ff021916908360ff1602179055508460018460ff168154811061139857611398611d17565b600091825260209091200180546014906113bd908490600160a01b900460ff16611d60565b92506101000a81548160ff021916908360ff16021790555061166b565b6114048660405180604001604052806008815260200167199b1a5c1ad85c9d60c21b815250611871565b15611517578460ff1660018560ff168154811061142357611423611d17565b600091825260209091200154600160a81b900460ff1610156114875760405162461bcd60e51b815260206004820152601c60248201527f496e73756666696369656e7420466c69706b61727420506f696e7473000000006044820152606401610696565b8460018560ff168154811061149e5761149e611d17565b600091825260209091200180546015906114c3908490600160a81b900460ff16611e27565b92506101000a81548160ff021916908360ff1602179055508460018460ff16815481106114f2576114f2611d17565b600091825260209091200180546015906113bd908490600160a81b900460ff16611d60565b61153f86604051806040016040528060068152602001656d796e74726160d01b815250611871565b1561166b578460ff1660018560ff168154811061155e5761155e611d17565b600091825260209091200154600160b01b900460ff1610156115c25760405162461bcd60e51b815260206004820152601a60248201527f496e73756666696369656e74204d796e74726120506f696e74730000000000006044820152606401610696565b8460018560ff16815481106115d9576115d9611d17565b600091825260209091200180546016906115fe908490600160b01b900460ff16611e27565b92506101000a81548160ff021916908360ff1602179055508460018460ff168154811061162d5761162d611d17565b60009182526020909120018054601690611652908490600160b01b900460ff16611d60565b92506101000a81548160ff021916908360ff1602179055505b6040805160a0810182523381526001600160a01b0389811660208084019182529383018a8152606084018b905260ff8a16608085015260028054600181018255600091909152845160059091027f405787fa12a823e0f2b7631cc41b3ba8828b3321ca811111fa75cd3aa3bb5ace810180549286166001600160a01b031993841617815593517f405787fa12a823e0f2b7631cc41b3ba8828b3321ca811111fa75cd3aa3bb5acf820180549190961692169190911790935551805193948594929361175e937f405787fa12a823e0f2b7631cc41b3ba8828b3321ca811111fa75cd3aa3bb5ad09091019290910190611913565b506060820151805161177a916003840191602090910190611913565b50608091909101516004909101805460ff191660ff9092169190911790555050505050505050565b6000805b60015460ff8216101561180657826001600160a01b031660018260ff16815481106117d3576117d3611d17565b6000918252602090912001546001600160a01b031614156117f45792915050565b806117fe81611d85565b9150506117a6565b92915050565b600080611818336117a2565b60015490915060ff82161061183f5760405162461bcd60e51b815260040161069690611dfd565b60018160ff168154811061185557611855611d17565b600091825260209091200154600160a01b900460ff1692915050565b815181516000918491849190811461188f5760009350505050611806565b60005b81811015611906578281815181106118ac576118ac611d17565b602001015160f81c60f81b6001600160f81b0319168482815181106118d3576118d3611d17565b01602001516001600160f81b031916146118f4576000945050505050611806565b806118fe81611e81565b915050611892565b5060019695505050505050565b82805461191f90611da5565b90600052602060002090601f0160209004810192826119415760008555611987565b82601f1061195a57805160ff1916838001178555611987565b82800160010185558215611987579182015b8281111561198757825182559160200191906001019061196c565b506119939291506119b5565b5090565b60405180606001604052806003906020820280368337509192915050565b5b8082111561199357600081556001016119b6565b6000815180845260005b818110156119f0576020818501810151868301820152016119d4565b81811115611a02576000602083870101525b50601f01601f19169290920160200192915050565b60006020808301818452808551808352604092508286019150828160051b87010184880160005b83811015611ac157888303603f19018552815180516001600160a01b0390811685528882015116888501528681015160a088860181905290611a82828701826119ca565b91505060608083015186830382880152611a9c83826119ca565b60809485015160ff169790940196909652505094870194925090860190600101611a3e565b509098975050505050505050565b634e487b7160e01b600052604160045260246000fd5b600067ffffffffffffffff80841115611b0057611b00611acf565b604051601f8501601f19908116603f01168101908282118183101715611b2857611b28611acf565b81604052809350858152868686011115611b4157600080fd5b858560208301376000602087830101525050509392505050565b600082601f830112611b6c57600080fd5b611b7b83833560208501611ae5565b9392505050565b803560ff8116811461109757600080fd5b600080600060608486031215611ba857600080fd5b833567ffffffffffffffff80821115611bc057600080fd5b611bcc87838801611b5b565b94506020860135915080821115611be257600080fd5b50611bef86828701611b5b565b925050611bfe60408501611b82565b90509250925092565b80356001600160a01b038116811461109757600080fd5b600060208284031215611c3057600080fd5b611b7b82611c07565b600060208284031215611c4b57600080fd5b813567ffffffffffffffff811115611c6257600080fd5b8201601f81018413611c7357600080fd5b611c8284823560208401611ae5565b949350505050565b602081526000611b7b60208301846119ca565b60608101818360005b6003811015611cc857815160ff16835260209283019290910190600101611ca6565b50505092915050565b600080600060608486031215611ce657600080fd5b611cef84611c07565b9250602084013567ffffffffffffffff811115611d0b57600080fd5b611bef86828701611b5b565b634e487b7160e01b600052603260045260246000fd5b60609190911b6bffffffffffffffffffffffff1916815260140190565b634e487b7160e01b600052601160045260246000fd5b600060ff821660ff84168060ff03821115611d7d57611d7d611d4a565b019392505050565b600060ff821660ff811415611d9c57611d9c611d4a565b60010192915050565b600181811c90821680611db957607f821691505b60208210811415611dda57634e487b7160e01b600052602260045260246000fd5b50919050565b600060ff821680611df357611df3611d4a565b6000190192915050565b60208082526010908201526f155cd95c88139bdd08105b1b1bddd95960821b604082015260600190565b600060ff821660ff841680821015611e4157611e41611d4a565b90039392505050565b6000816000190483118215151615611e6457611e64611d4a565b500290565b60008219821115611e7c57611e7c611d4a565b500190565b6000600019821415611e9557611e95611d4a565b506001019056fea2646970667358221220fdfc00bb02d2627bd6cc82c7e02d1ca5dda0afe22097831e3c4141455b1e320464736f6c63430008090033",
  "linkReferences": {},
  "deployedLinkReferences": {}
}